{
  "_format": "hh-sol-artifact-1",
  "contractName": "MockNFTMarketplace",
  "sourceName": "contracts/MockNFTMarketplace.sol",
  "abi": [
    {
      "inputs": [
        {
          "internalType": "uint256",
          "name": "_tokenId",
          "type": "uint256"
        }
      ],
      "name": "available",
      "outputs": [
        {
          "internalType": "bool",
          "name": "",
          "type": "bool"
        }
      ],
      "stateMutability": "view",
      "type": "function"
    },
    {
      "inputs": [],
      "name": "getPrice",
      "outputs": [
        {
          "internalType": "uint256",
          "name": "",
          "type": "uint256"
        }
      ],
      "stateMutability": "view",
      "type": "function"
    },
    {
      "inputs": [
        {
          "internalType": "uint256",
          "name": "_tokenId",
          "type": "uint256"
        }
      ],
      "name": "purchase",
      "outputs": [],
      "stateMutability": "payable",
      "type": "function"
    },
    {
      "inputs": [
        {
          "internalType": "uint256",
          "name": "",
          "type": "uint256"
        }
      ],
      "name": "tokens",
      "outputs": [
        {
          "internalType": "address",
          "name": "",
          "type": "address"
        }
      ],
      "stateMutability": "view",
      "type": "function"
    }
  ],
  "bytecode": "0x608060405267016345785d8a000060015534801561001c57600080fd5b506102638061002c6000396000f3fe60806040526004361061003f5760003560e01c80634f64b2be1461004457806396e494e81461007a57806398d5fdca146100a7578063efef39a1146100c9575b600080fd5b34801561005057600080fd5b5061006461005f3660046101a9565b6100de565b60405161007191906101c1565b60405180910390f35b34801561008657600080fd5b5061009a6100953660046101a9565b610106565b60405161007191906101e2565b3480156100b357600080fd5b506100bc610141565b6040516100719190610224565b6100dc6100d73660046101a9565b610147565b005b60006020819052908152604090205473ffffffffffffffffffffffffffffffffffffffff1681565b60008181526020819052604081205473ffffffffffffffffffffffffffffffffffffffff16156101385750600161013c565b5060005b919050565b60015490565b60015434146101715760405162461bcd60e51b8152600401610168906101ed565b60405180910390fd5b600090815260208190526040902080547fffffffffffffffffffffffff00000000000000000000000000000000000000001633179055565b6000602082840312156101ba578081fd5b5035919050565b73ffffffffffffffffffffffffffffffffffffffff91909116815260200190565b901515815260200190565b60208082526018908201527f54686973204e465420636f73747320302e312065746865720000000000000000604082015260600190565b9081526020019056fea264697066735822122085c6321208e5ed6d84a9409e182d97a6b0f8c6b2aaf90d5543b4fd0fcb6acf4764736f6c63430008000033",
  "linkReferences": {},
  "deployedLinkReferences": {}
}